:100000000C942A020C9447020C9447020C94470269
:100010000C9447020C9447020C9447020C9447023C
:100020000C9447020C9447020C9447020C9447022C
:100030000C9447020C9447020C9447020C9447021C
:100040000C9447020C9447020C9447020C9447020C
:100050000C944702000000000000000000000000B7
:100060000000000000000000000000000000000090
:100070000000000000000000000000000000000080
:100080000000000000000000000000000000000070
:100090000000000000000000000000000000000060
:1002D000000000000000003F0101010101010101D7
:1002E000013F203F0101010101010101013F203FC8
:1002F0000101010101010101013F203F0101010153
:1003000001010101013F203F010101010101010142
:10031000013F203F0101010101010101013F203F97
:100320000101010101010101013F203F0101010122
:1003300001010101013F203F010101010101010112
:10034000013F203F0101010101010101013F202086
:10035000000000000000000000000000000000009D
:10036000000000000000000000000000000000008D
:10037000000000000000000000000000000000007D
:10038000000000000000000000000000000000006D
:10039000000000000000000000000000000000005D
:1003A000000000000000000000000000000000004D
:1003B000000000000000000000000000000000003D
:1003C000000000000000000000000000000000002D
:1003D000000000000000000000000000000000001D
:1003E000000000000000000000000000000000000D
:1003F00000000000000000000000000000000000FD
:1004000000000000000000000000000000000000EC
:1004100000000000000000000000000000000000DC
:1004200000000000000000000000000000000000CC
:1004300000000000000000000000000000000000BC
:1004400000000000000000000000000000000000AC
:100450000000000011241FBECFE5D8E0DEBFCDBFF5
:1004600012E0A0E6B0E0E8EFFBE002C005900D92DC
:10047000AA38B107D9F722E0AAE8B2E001C01D927C
:10048000AA38B207E1F70E94C4040C94FA050C9450
:1004900000000E947F020E94A90260E472E082E0F4
:1004A00090E00E94C70262E572E083E090E00E9463
:1004B000C7020E94A9022FEB87E299E021508040F9
:1004C0009040E1F700C000000E94A90284E590E09E
:1004D0000E94640466E672E082E090E00E94C70237
:1004E000FFCF8BBBA898A998AA9A8DE08A95F1F7BF
:1004F0000000AA988DE08A95F1F7000008958FEF2B
:100500008ABB84BB85B3886385BB8FE39CE9019775
:10051000F1F700C000008EE30E94710280E40E94A7
:10052000710288EB0E94710280EC0E9471028FE3DD
:100530000E94710208958BBBA89AA998AA9A8DE08F
:100540008A95F1F70000AA988DE08A95F1F70000EE
:1005500008951F93CF93DF9385B3886185BB18EB14
:10056000812F0E947102C0E4D0E080E00E949B02D3
:100570002197D9F71F5F103C99F780E40E94710220
:1005800088EB0E947102DF91CF911F9108952F9205
:100590003F924F925F926F927F928F929F92AF9213
:1005A000BF92CF92DF92EF92FF920F931F93CF9360
:1005B000DF9300D000D000D0CDB7DEB78B01E82E9E
:1005C000F12CC70188549F4F9A838983AB9AAC98CA
:1005D0000E947102F8019081992309F459C12224E3
:1005E00033242E183F083694322C22243794279433
:1005F000F5E02F1AFCEF3F0A612C512C412C0F2EF5
:10060000FFE37F2EF02DE12CF12C49815A819A01D4
:1006100040E050E029833A834B835C8304C02E146E
:100620003F0408F435C1903209F44FC081E090E0F6
:100630009E838D83CD80DE80CE0CDF1C20E030E0F9
:1006400040E05FE3662D752D842D972D0E94CA042E
:10065000A62EB72E982E892E0E9436057695762FD7
:10066000662777956795C616D70629F5ED81FE8131
:10067000359759F180E40E94710285B3F8E08F2725
:1006800085BB85B320E1822785BB69817A818B8117
:100690009C810E946C05262D352D442D572D0E94DE
:1006A000CA040E943D05862F0E9471026A2C5B2CB1
:1006B000492C782C76014D815E814F5F5F4F5E83C0
:1006C0004D834630510509F0B5CF2E143F0408F490
:1006D000DFC0F8018081803209F053C067011E82BB
:1006E0001D82F801808190E080979C01220F331FCA
:1006F000220F331FF901E80FF91FE05AFF4F2D8138
:100700003E81E20FF31F80810E949B023FEFC31ADC
:10071000D30AC6018F739927892B39F585B348E031
:10072000842785BB85B350E1852785BB69817A81A4
:100730008B819C810E946C05262D352D442D572DD3
:100740000E94CA040E943D05862F0E94710220E08B
:1007500030E040E05FE3662D752D842D972D0E94DB
:10076000CA04662E572E482E792E8D819E810196C1
:100770009E838D83059709F0B4CF95E0E90EF11CB7
:1007800081C067011E821D82F801808190E0809700
:100790009C01220F331F220F331FF901E80FF91FAD
:1007A000E05AFF4F2D813E81E20FF31F80810E94AE
:1007B0009B023FEFC31AD30AC6018F739927892B77
:1007C00039F585B348E0842785BB85B350E185279B
:1007D00085BB69817A818B819C810E946C05262D65
:1007E000352D442D572D0E94CA040E943D05862FA9
:1007F0000E94710220E030E040E05FE3662D752D3D
:10080000842D972D0E94CA04662E572E482E792ECD
:100810008D819E8101969E838D83059709F0B4CFCB
:1008200080E00E949B0296E0E90EF11CC7018F73E5
:100830009927892B39F585B3E8E08E2785BB85B3E9
:10084000F0E18F2785BB69817A818B819C810E9431
:100850006C05262D352D442D572D0E94CA040E946B
:100860003D05862F0E94710220E030E040E05FE30A
:10087000662D752D842D972D0E94CA04662E572E45
:10088000482E792E0F5F1F4FF80190819111C7CE2E
:1008900080E40E94710226960FB6F894DEBF0FBE68
:1008A000CDBFDF91CF911F910F91FF90EF90DF901F
:1008B000CF90BF90AF909F908F907F906F905F9000
:1008C0004F903F902F9008958F929F92AF92BF923A
:1008D000CF92DF92EF92FF920F931F93CF93DF930C
:1008E000AB9AAC98EC017C012CEFF21A0F2E812C04
:1008F000912CA12CFFE3BF2EF02D6894CC24C3F8DB
:100900006894DD24D4F829C0FE0184910E949B02E2
:100910002196C017D107C1F785B38C2585BB85B358
:100920008D2585BB20E030E048E353E4C501B401E8
:100930000E94CA040E943D05862F0E94710220E099
:1009400030E040E05FE3C501B4010E94CA044B01FE
:100950005C01E8010E151F0521F08E01005C1F4FA0
:10096000D3CF80E40E94710288EB0E947102DF9174
:10097000CF911F910F91FF90EF90DF90CF90BF909C
:10098000AF909F908F9008950E94490280E090E080
:1009900008955058BB27AA270E94E1040C94C00573
:1009A0000E94B20538F00E94B90520F039F49F3F4B
:1009B00019F426F40C94AF050EF4E095E7FB0C94C3
:1009C000A905E92F0E94D10558F3BA1762077307EA
:1009D0008407950720F079F4A6F50C94F3050EF43E
:1009E000E0950B2EBA2FA02D0B01B90190010C013F
:1009F000CA01A0011124FF27591B99F0593F50F457
:100A0000503E68F11A16F040A22F232F342F4427AE
:100A1000585FF3CF469537952795A795F0405395A6
:100A2000C9F77EF41F16BA0B620B730B840BBAF076
:100A30009150A1F0FF0FBB1F661F771F881FC2F7E1
:100A40000EC0BA0F621F731F841F48F487957795F5
:100A50006795B795F7959E3F08F0B0CF9395880FAF
:100A600008F09927EE0F9795879508950E943D0508
:100A70006894B1110C94F40508950E94D90588F08A
:100A80009F5798F0B92F9927B751B0F0E1F0660F52
:100A9000771F881F991F1AF0BA95C9F714C0B13093
:100AA00091F00E94F305B1E008950C94F305672FCF
:100AB000782F8827B85F39F0B93FCCF386957795C2
:100AC0006795B395D9F73EF49095809570956195AB
:100AD0007F4F8F4F9F4F0895E89409C097FB3EF4D6
:100AE00090958095709561957F4F8F4F9F4F99237B
:100AF000A9F0F92F96E9BB279395F69587957795F9
:100B00006795B795F111F8CFFAF4BB0F11F460FFB8
:100B10001BC06F5F7F4F8F4F9F4F16C0882311F010
:100B200096E911C0772321F09EE8872F762F05C024
:100B3000662371F096E8862F70E060E02AF09A95BF
:100B4000660F771F881FDAF7880F9695879597F9B4
:100B5000089597F99F6780E870E060E008959FEF3F
:100B600080EC089500240A94161617061806090644
:100B7000089500240A941216130614060506089513
:100B8000092E0394000C11F4882352F0BB0F40F49B
:100B9000BF2B11F460FF04C06F5F7F4F8F4F9F4FDB
:100BA000089557FD9058440F551F59F05F3F71F05D
:100BB0004795880F97FB991F61F09F3F79F08795C4
:100BC0000895121613061406551FF2CF4695F1DF4D
:100BD00008C0161617061806991FF1CF86957105DD
:100BE000610508940895E894BB2766277727CB0111
:080BF00097F90895F894FFCF76
:100BF800000000000000005F00000007000700146C
:100C08007F147F14242A7F2A12231308646236492A
:100C18005522500005030000001C2241000041221B
:100C28001C0014083E081408083E0808005030004C
:100C38000008080808080060600000201008040286
:100C48003E5149453E00427F40004261514946219C
:100C580041454B311814127F1027454545393C4A08
:100C68004949300171090503364949493606494958
:100C7800291E0036360000005636000008142241AE
:100C88000014141414140041221408020151090616
:100C9800324979413E7E1111117E7F494949363EDC
:100CA800414141227F4141221C7F494949417F09F5
:100CB8000909013E4149497A7F0808087F00417FB8
:100CC80041002040413F017F081422417F404040BD
:100CD800407F020C027F7F0408107F3E4141413E65
:100CE8007F090909063E4151215E7F0919294646B7
:100CF8004949493101017F01013F4040403F1F20E0
:100D080040201F3F4038403F6314081463070870B1
:100D180008076151494543007F414100020408101A
:100D2800200041417F00040201020440404040404D
:100D3800000102040020545454787F484444383851
:100D480044444420384444487F3854545418087E56
:100D58000901020C5252523E7F0804047800447D77
:100D680040002040443D007F1028440000417F405F
:100D7800007C041804787C08040478384444443817
:100D88007C14141408081414187C7C0804040848FB
:100D980054545420043F4440203C4040207C1C20B4
:100DA80040201C3C4030403C44281028440C505003
:100DB800503C4464544C44000836410000007F0015
:100DC80000004136080010080810087846414678A7
:100DD80044757479204379636C65203A2039302052
:100DE80025004672657175656E637920203A20305A
:100DF80030204B485A004C434420477261706820A9
:100E0800466F7220476976656E2020204475747994
:0A0E1800206379636C65203A000046
:00000001FF
